:1000000000500020ED0C0000590100005D010000CF
:10001000CD010000D1010000190200000000000025
:10002000000000000000000000000000610200006D
:100030006502000000000000690200004513000096
:100040007D02000000B583B000F03AFD304B314A2C
:100050001360314A1360314B314A03E01168196073
:10006000043304322F498B42F8D32A4B1A682E4BA3
:100070009A4204D1284B1A682C4B9A4200D0FEE7D2
:10008000234B2B4A13602B4A13602B4B02E00022B8
:100090001A600433294A9342F9D3254B1B6813B9DC
:1000A000244B1B6803B1FEE700F016FD01A869466A
:1000B00000F084F9224B234DED1AAD10002404E02A
:1000C0001F4B53F8243098470134A542F8DC1E4BEF
:1000D0001E4DED1AAD10002404E01B4B53F82430E4
:1000E00098470134A542F8DC0198009900F09EFE83
:1000F0000546174B174CE41AA41004E0013C144BBE
:1001000053F824309847002CF8DC284600F0EEF82D
:10011000BABADECA000000207800002000000020EB
:10012000981E00007C0000207856341232547698D5
:100130007C000020680200207C0000206C0200206F
:10014000A8020000A8020000A8020000A802000007
:10015000A8020000A802000000BEFEE71EF0040F87
:100160000CBFEFF30880EFF309807146404A104757
:100170002DE9F04383B005468946124C676BA66BA8
:10018000D4F82880236B13F0020F0BD0E36A002B06
:1001900008DA4BF6AB6100F01BFD18B14FF00042DE
:1001A000E2620CE0084800F03DFCCDF800902846E3
:1001B00041463A46334600F093FC00BEFEE703B0EA
:1001C000BDE8F08300ED00E0D01C000000BEFEE7BB
:1001D0001EF0040F0CBFEFF30880EFF309807146A7
:1001E000244A10472DE9F04182B007468846084C62
:1001F000666BA56BA46A074800F014FCCDF800807C
:100200003846214632462B4600F06AFC00BEFEE727
:1002100000ED00E0E01C00001EF0040F0CBFEFF347
:100220000880EFF309807146134A10472DE9F04129
:1002300082B007468846084C666BA56BA46A0748DF
:1002400000F0F0FBCDF800803846214632462B46C0
:1002500000F046FC00BEFEE700ED00E0EC1C0000F4
:1002600000BEFEE700BEFEE700BEFEE770470000EE
:1002700071010000E50100002D020000FEE700BF53
:10028000981E0000000000207C000020981E000046
:1002900000000010000000107C0000206C02002014
:0802A000000000100000001036
:1002A80008B50D4B1B6813B90C4A0B4B1A600A4B67
:1002B8001B68033020F003001844094A904206D90D
:1002C80001F044F80C2303604FF0FF3008BD024AE8
:1002D8001060184608BD00BF800000206C02002096
:1002E800004C002000B5064B064A002814BF1546EE
:1002F8001D46182420462946ABBE0446FEE700BF2B
:10030800260002002300020070B584B0244C01943A
:10031800032303930023029301AE012528463146A7
:10032800ABBE05461F4B1D600194032303930423B2
:1003380002930DEB0306012528463146ABBE054660
:10034800194B1D600194032303930823029301AD05
:10035800012420462946ABBE0446144B1C60B4F168
:10036800FF3F03D1104B1A68104B1A60002305E0B9
:100378004FF0FF310E4A42F833100133132BF7DDEB
:100388000B4B084A12681A6000225A60064909682D
:100398009960DA600549096819615A6104B070BD4D
:1003A800A81B0000D800002084000020DC000020EA
:1003B800080100202DE9F04182B080460F46304BFD
:1003C80000934F2301936D46152420462946ABBE62
:1003D8000446002C40D12A4B83F84F40009A20460F
:1003E800254634E0DDB927490E681E4496F90160B8
:1003F800002E04DB092B14BF0021012100E001219C
:1004080021BB082C29DC222B01D0272B01D101325A
:1004180018461D4B43F824200134012516E028B165
:10042800834213D10025157028460FE01549096845
:10043800194491F90110002904DB092B14BF00238A
:10044800012300E001230BB100251570013292F958
:100458000030002BC6D100E000242CB9084B002244
:100468001A70094A13600134074B002243F824200C
:10047800C8F800403B60FFF747FF02B0BDE8F081D5
:100488008800002010000020E0000020114BDB6CE9
:10049800C3F307434A2B06D04B2B18D0482B0E48E2
:1004A80018BF002070470D4B196901F03F019A6988
:1004B80002F0F00242EA0122DB69C3F3031313439B
:1004C800074A0548B3F5017F28BF1046704704481E
:1004D800704700BFB081E00F0048E801D0FF0FE08F
:1004E80000366E01114B5B6903F4E063B3F5007FDE
:1004F8001AD004D883B1B3F5807F0BD012E0B3F5DE
:10050800C06F0DD0B3F5E06F08D0B3F5407F09D1C7
:1005180007487047074870470748704707487047BB
:1005280007487047002070470648704700800C4015
:1005380040420F00C0D8A700809FD500406F4001FF
:10054800003FAB01C0CF6A0008B5194B9A6A430057
:1005580022FA03F303F00303032B25D8DFE803F0A3
:100568001A02050800F050FC08BD00F055FC08BD53
:100578000F4B5B6813F4807F04D10D4B1B6813F09D
:10058800804F03D000F02AFC800808BD00F026FC4C
:10059800400808BD064B9B6A0430800033FA00F01F
:1005A80004D000F035FC08BD002008BD002008BDBF
:1005B80000800C4000F00F000138042860D8DFE804
:1005C80000F003152C434D00324BDB6A03F47053E3
:1005D800B3F5805F56D0B3F5005F05D0B3F5006F73
:1005E8000CBF04200520704702207047294B9B6AE6
:1005F80003F00303022B47D0032B03D0012B03D1B5
:100608000320704706207047224B9B6A03F480330F
:10061800002B14BF0920012070471E4B9B6A03F072
:100628000C03082B32D00C2B03D0042B03D103204E
:10063800704706207047174B9B6A03F48013002B02
:1006480014BF092001207047124B1B6803F0805328
:10065800B3F1805F0CBF0820072070470D4BDB6AA1
:1006680003F46033B3F5803F08D0B3F5003F0FD0F3
:10067800B3F5004F0CBF08200120704702207047D7
:1006880000207047032070470220704702207047FF
:100698000320704700800C4008B50B48FFF78AFF1D
:1006A80007280BD008280CD100F034FB074B1B6837
:1006B800C3F382330133B0FBF3F008BDFFF712FF39
:1006C80008BD002008BD00BF0400180000800C40D1
:1006D80008B50A48FFF76EFF032806D0082807D098
:1006E800022808D100F098FB08BD00F08DFB08BD7A
:1006F80000F010FB08BD002008BD00BF05231C004A
:1007080008B500F47810B0F5602F6CD018D8B0F5A3
:10071800C02F48D009D8B0F5003F33D0B0F5802FAE
:100728003ED0002840F0968022E0B0F5202F47D038
:10073800B0F5402F4DD0B0F5002F40F08B8036E05B
:10074800B0F5B01F74D009D8B0F5901F63D0B0F5DC
:10075800A01F64D0B0F5801F7CD153E0B0F5D01F46
:1007680072D0B0F5E01F72D0B0F5C01F72D168E04A
:1007780000F0D0FA384B1B68C3F382330133B0FB67
:10078800F3F008BD00F0C6FA334B1A68C2F38232A0
:100798000132B0FBF2F09B6803F00F03D84008BDAC
:1007A80000F01CFB08BD0020FFF7CEFE08BD0020AE
:1007B800FFF7CAFE284B9B6EC3F30313D84008BD4E
:1007C8000020FFF7C1FE244B9B6EC3F30323D840E0
:1007D80008BD0020FFF7B8FE1F4B9B6EC3F3013323
:1007E8000433D84008BD0020FFF7AEFE1A4B9A6EBE
:1007F800C2F30132D040DB6F03F007030133B0FBD3
:10080800F3F008BD0020FFF79FFE134B9B6E03F02B
:100818000303D84008BD0120FFF796FE08BD01205C
:10082800FFF792FE0C4B1B6F03F00303D84008BD83
:100838000120FFF789FE084B1B6FC3F30113D84053
:1008480008BDFFF729FF08BDFFF74CFE08BDFFF7FD
:100858003FFF08BD002008BD00800C4070B504466D
:100868000D46C0F30323013B052B37D8DFE803F01F
:10087800031F0616191C002219491DE01948FFF725
:100888003FFF0646FFF702FE864213D90123164AA8
:10089800136028321360002214490DE00122144924
:1008A8000AE01022134907E00022134904E000225D
:1008B800124901E000220D49C4F3043442B1104B3F
:1008C8005B6D13F0010F03D10D4B1B6D1A42FBD169
:1008D80001F1047104EBC10189000D6070BD00BF16
:1008E80008800C40200004007800904340800C40B1
:1008F80058800C4060800C4078800C4044800C404C
:1009080000800C4010B4074BC2001418A4001C59F6
:1009180024F0030421430244920099505DF8044BEB
:10092800704700BF00600040F0B4144692B153B164
:1009380001258D4000EBC002920002F1804202F5D1
:10094800C042156106E001258D4000EBC006B600E7
:10095800234A9551072914D8224AC5002E1802EBBC
:10096800860677688E004FF00F0C0CFA06FC27EA13
:100978000C0704FA06F63E43054402EB850256606E
:1009880016E0184DC600321805EB8202976801F18F
:100998008042083A92004FF00F0C0CFA02FC27EA4A
:1009A8000C0704FA02F23A43064405EB8605AA60EE
:1009B800A4B95BB1012303FA01F100EBC000800088
:1009C80000F1804000F5C040016107E0012303FA0F
:1009D80001F100EBC0008000014B1950F0BC7047DA
:1009E80014600040006000400B4B596901F00F0192
:1009F8001A69C2F3811242EA810282701A6902F00E
:100A08003F0242709A6902F0F002DB69C3F30313F4
:100A180013430370704700BFD0FF0FE00FB400B559
:100A280083B004AB53F8042B01930848802100F0ED
:100A38003DFD011E03DD054800F03AF80146084671
:100A480003B05DF804EB04B0704700BFA8010020B4
:100A58002DE9F04385B004468846435C0BBB04256A
:100A680028462146ABBE04461EE0102F34BF3E4642
:100A78001026002306E014F8015B04AA1A4402F8C1
:100A8800105C0133B342F6D304AA1344002203F8DE
:100A9800102CE946042528464946ABBE0546BF1B2F
:100AA80000E00F46002FE0D1404605B0BDE8F083D6
:100AB80008B5FFF7CDFF08BD08B500F00BF9024BEC
:100AC800024A9A6008BD00BF00ED00E00000000087
:100AD80008B500F0F7F808BDF8B504460D46174606
:100AE8001E462648FFF79AFF25482168FFF796FF1C
:100AF80024486168FFF792FF2348A168FFF78EFF3B
:100B08002248E168FFF78AFF21482169FFF786FF3D
:100B180020486169FFF782FF1F48A169FFF77EFF40
:100B28001E48E169FFF77AFF1D48FFF777FF1D4868
:100B38002946FFF773FF1C4CE16A1C48FFF76EFF5C
:100B4800216B1B48FFF76AFFE16B1A48FFF766FF46
:100B580015F0800F03D018483946FFF75FFF15F4EA
:100B6800004F03D015483146FFF758FF1448FFF7E8
:100B780055FF14480699FFF751FFF8BDB41B000054
:100B8800C41B0000D41B0000E41B0000F41B000081
:100B9800041C0000141C0000241C0000341C00006D
:100BA800441C0000501C000000ED00E0601C000028
:100BB800701C0000801C0000901C0000A01C00009D
:100BC800B01C0000B81C000038B5044683691B88B7
:100BD8008B426CD103684568013B302B69D8DFE84C
:100BE80003F0421D61615A2C2F2919196819191926
:100BF800191932192068192368356868686868689F
:100C0800686868686868686868686868686868685C
:100C1800681919004FF0FF33036043E000230360B5
:100C280040E0002303603DE000232B606B60AB6075
:100C3800EB6037E00023036034E0AB68036031E029
:100C4800002303602EE0002303602BE0BFF34F8FE7
:100C5800194AD16801F4E061184B0B43D360BFF324
:100C68004F8F00BFFDE72868154900F0E3FB70B916
:100C78006B6813B90123236014E0042B02D102230B
:100C880023600FE0082B02D1032323600AE04FF012
:100C9800FF33236006E02B68023B012B94BF00233F
:100CA800AB680360A3690233A361012038BD00204B
:100CB80038BD002038BD00BF00ED00E00400FA0593
:100CC800A81B0000014A024B1A60704700127A0004
:100CD80004000020014A024B1A60704700127A0093
:100CE80004000020064880470649074A074B9A42F5
:100CF800BEBF51F8040B42F8040BF8E7FFF79EF962
:100D0800DD0C0000981E0000000000207C00002080
:100D1800FEE700BF254BDB6A03F47053B3F5805F31
:100D28003FD0B3F5005F03D0B3F5006F06D102E002
:100D38001F4B186870471F4B186870471B4BDB68C0
:100D480003F4E063B3F5007F13D004D8EBB1B3F537
:100D5800807F10D023E0B3F5806F25D0B3F5A06F66
:100D680003D0B3F5407F1AD101E013487047134808
:100D7800704713487047134BD86C000E124B134A38
:100D8800122894BF1046184670470E4BD86C000EB8
:100D98000F4B104A122894BF10461846704700207F
:100DA80070474FF4004070470B48704700800C4074
:100DB800080000200C000020003FAB01809FD500F8
:100DC800C0D8A700B081E00F40B56400C0CF6A006A
:100DD800804F120040420F00406F400108B5FFF7F6
:100DE80099FF074B1A68C2F382320132B0FBF2F066
:100DF8005B6803F00F03D840024B186008BD00BFC2
:100E080000800C40040000204FF40040704700BFF1
:100E18004FF47A70704700BF014B1868704700BFE5
:100E28000800002010B582B04B4B1C6801A8FFF7E2
:100E3800DBFDB4F1805F0AD39DF80430032B06D1A3
:100E4800464B1A6822F0500242F010021A604448D9
:100E58000121FFF703FD00F0FBF90020012100F05C
:100E680095F90120014600F091F90220012100F0D6
:100E78008DF9012000F08CF8D8B13A4A1368013393
:100E88001360072B02DD0022364B1A60354C2168AF
:100E9800002001F0010100F079F921680120C1F377
:100EA800400100F073F921680220C1F3800100F0CD
:100EB8006DF9022000F06CF8E0B12A4B1B681BB9F1
:100EC8000722284B1A6002E0013B264A1360254C92
:100ED8002168002001F0010100F058F92168012083
:100EE800C1F3400100F052F921680220C1F38001EA
:100EF80000F04CF9032000F04BF898B11A4A136837
:100F080001331360072B02DD0022174B1A60164BC2
:100F18001B68002003F00101C3F34002C3F3800300
:100F280000F05CF9042000F033F80028A1D00F4A43
:100F3800136801331360072B02DD00220B4B1A6084
:100F48000A4B1B68012003EA0001C3F34002C3F304
:100F5800800300F043F98CE7FC81E00FC0800C406F
:100F680000D20200280200202C02002030020020BB
:100F7800014B1B681844704758020020034B1B683C
:100F880098422CBF00200120704700BF5802002063
:100F980010B5012830D1704BDB6913F0800F15D1E3
:100FA8006E4B1B78002B40F0B6806D4B1868FFF72E
:100FB800E5FF002800F0B1800124684B1C70642014
:100FC800FFF7D6FF674B1860204610BD634B1B78B0
:100FD800002B00F0A480634B1868FFF7CFFF0028B0
:100FE80000F09F8000245D4B1C706420FFF7C0FF59
:100FF8005B4B1860204610BD02282ED1564BDB698A
:1010080013F4006F15D1584B1B78002B40F08B80E0
:10101800564B1868FFF7B2FF002800F086800124BD
:10102800514B1C706420FFF7A3FF514B18602046FA
:1010380010BD4D4B1B78002B79D04D4B1868FFF72E
:101048009DFF002875D00024474B1C706420FFF7D3
:101058008FFF464B1860204610BD03282CD13E4B0D
:101068001B6C13F4007F13D1424B1B78002B62D109
:10107800414B1868FFF782FF00285ED001243D4BE2
:101088001C706420FFF774FF3C4B1860204610BDAD
:10109800384B1B78002B52D0384B1868FFF76EFF7F
:1010A80000284ED00024334B1C706420FFF760FFEB
:1010B800314B1860204610BD04282BD1264B1B6CE1
:1010C80013F4806F13D12E4B1B78002B3BD12D4B83
:1010D8001868FFF753FF002837D00124284B1C70ED
:1010E8006420FFF745FF284B1860204610BD244BAD
:1010F8001B78002B2BD0244B1868FFF73FFF40B319
:1011080000241F4B1C706420FFF732FF1D4B186032
:10111800204610BD10BD002010BD002010BD0020CD
:1011280010BD002010BD002010BD002010BD002003
:1011380010BD002010BD002010BD002010BD0020F3
:1011480010BD002010BD002010BD002010BD0020E3
:1011580010BD002010BD00BF006000403402002018
:101168003802002048020020350200203C020020FE
:101178004C020020360200204002002050020020CD
:10118800370200204402002054020020034648B9D8
:1011980021B14FF48070104A106103E04FF4807061
:1011A8000D4A5061012B09D121B14FF400700A4A50
:1011B800106103E04FF40070074A5061022B09D117
:1011C80021B14FF48062044B1A6170474FF480627A
:1011D800014B5A61704700BF0060004030B40446BC
:1011E800B8B919B120251948456302E020251748E8
:1011F80085631AB110251548456302E01025134888
:1012080085631BB108251148456302E008250F488E
:101218008563012C17D119B110200C49886502E0AB
:1012280010200A49C8651AB10821084A916502E0E8
:101238000821064AD1651BB10422044B9A6502E0D5
:101248000422024BDA6530BC704700BF00600040E2
:1012580008B50020082105220346FFF765FB00209A
:10126800092105220346FFF75FFB00200A2105221A
:101278000346FFF759FB00200321FFF743FB01203A
:10128800052108220346FFF74FFB0120042108220D
:101298000346FFF749FB0120032108220346FFF715
:1012A80043FB0220042108220123FFF73DFB022013
:1012B800032108220123FFF737FB022001460822F9
:1012C8000123FFF731FB0020072102220123FFF74A
:1012D8002BFB00200B2102220123FFF725FB012015
:1012E800092102220346FFF71FFB01200A210222DF
:1012F8000346FFF719FB0D48FFF702FA0C4BA3FB57
:10130800002080090138B0F1807F0AD2094A506074
:10131800E021094B83F82310002393600721116013
:1013280000E0012303B100BE08BD00BF2000040097
:10133800D34D621010E000E000ED00E0024B1A68A7
:1013480001321A60704700BF58020020014B18682C
:10135800704700BF7400002010B50023934203D0EB
:10136800CC5CC4540133F9E710BD000070B5CD1C46
:1013780025F0030508350C2D38BF0C25002D064631
:101388003FDB8D423DD3214B1C6818462146A1B155
:101398000B685B1B0ED40B2B03D90B60CC18CD50FC
:1013A8001FE08C4202D1626802601AE04B686360F9
:1013B8000C4616E00C464968E9E7154C23681BB94A
:1013C800304600F027F820602946304600F022F821
:1013D800431C014615D0C41C24F0030484420AD1DE
:1013E800256004F10B00231D20F00700C31A0BD061
:1013F8005A42E25070BD3046611A00F00BF80130D5
:10140800EED10C233360002070BD00BF60020020C5
:101418005C02002038B5064C0023054608462360C8
:10142800FEF73EFF431C02D1236803B12B6038BD91
:101438006402002010F8012B11F8013B012A28BF93
:101448009A42F7D0D01A7047034613F8012B002AA6
:10145800FBD1181A0138704730B5141E9BB00546E9
:1014680004DA8B2303604FF0FF301CE04FF4027264
:1014780000910491ADF80C2014BF04F1FF3121460E
:101488004FF6FF7202910591ADF80E2069461A4693
:101498001E9B00F0BBF8431CBCBF8B232B6014B110
:1014A800009B00221A701BB030BD000073B500937A
:1014B800054B06460D461446186831462A4623460B
:1014C800FFF7CAFF02B070BD7400002030B50029D4
:1014D8003CD051F8042C0B1F1D49002AB8BF9B189B
:1014E8000A680C4612B95A600B6030BD93420DD29F
:1014F80019685818904203D15A5811444268196023
:101508005A60236030BD994203D80A4651680029C1
:10151800F9D1146815199D420AD11B682344D018C3
:101528008842136012D10868034413604B680CE0CA
:1015380002D90C23036030BD18681C188C4203D1F3
:101548000C684968204418605960536030BD00BF7A
:10155800600200202DE9F0478D688146AB420C46B9
:1015680092461F4643D38B8913F4906F3DD026686B
:1015780009690222C1EB0608666906EB460696FB76
:10158800F2F608F101023A44964238BF16465B0566
:101598000FD53146FFF7EAFE054698B12169424664
:1015A800FFF7DAFEA38923F4906343F08003A38155
:1015B80013E0324600F0C5FA054670B9484621697D
:1015C800FFF784FF0C23C9F80030A3894FF0FF30E0
:1015D80043F04003A381BDE8F08725616661454477
:1015E800C8EB06062560A6603D46AF4200D23D46E0
:1015F8002A462068514600F089FAA36800205B1B40
:10160800A36023681D442560BDE8F0872DE9F043F9
:101618009DB003938B8907461C060D4616460CD5CC
:101628000B6953B94021FFF7A1FE2860286110B962
:101638000C233B60C7E040236B6100230993202300
:101648008DF8293030238DF82A3033461C4613F89C
:10165800012B1AB9B4EB06090FD002E0252AF5D1FF
:10166800F8E73846294632464B46FFF773FF013004
:1016780000F0A480099B4B4409932378002B00F0C9
:101688009D8000234FF0FF32049307930592069341
:101698008DF853301A9304F101094D4E4C463046EB
:1016A8002178052200F024FA09F10109049B28B1E8
:1016B800861B0120B04003430493EEE7D90644BFDC
:1016C80020228DF853201A0744BF2B228DF853206F
:1016D80022782A2A02D0079B21460EE0039A111D80
:1016E80012680391002A01DB079204E0524243F09A
:1016F80002030792049301340AE00C462278013170
:10170800303A092A03D80A2000FB0323F5E7079398
:1017180023782E2B19D163782A2B09D1039B023405
:101728001A1D1B680392002BB8BF4FF0FF330BE064
:10173800611C00230C4622780131303A092A03D86B
:101748000A2000FB0323F5E70593224E2178304653
:10175800032200F0CDF930B1861B4020B040049B35
:1017680001340343049321781B480622661C8DF834
:10177800281000F0BDF988B1184B33B9039B073323
:1017880023F007030833039314E003AB00933846B0
:1017980004A92A46124BAFF3008007E003AB00937D
:1017A800384604A92A460E4B00F08EF8B0F1FF3FE8
:1017B800804603D0099B4344099346E7AB895B06FF
:1017C80001D4099801E04FF0FF301DB0BDE8F08367
:1017D800621E0000681E00006C1E00000000000071
:1017E8005D1500002DE9F84315461F468A680B6908
:1017F80006469A42A8BF13462B6091F843200C4630
:10180800DDF820800AB101332B602368990602D5E0
:101818002B6802332B60236813F006091DD094F857
:1018280043302268003318BF012392061FD5E11800
:10183800302081F843005A1C94F8451022440233A2
:1018480082F8431013E03046394604F119020123A7
:10185800C047013007D009F10109E2682B68D31AA3
:101868009945F0DBDBE74FF0FF30BDE8F883304601
:10187800394604F14302C0470130F4D023682A688E
:1018880003F00603E168042B08BFC2EB01052369D6
:10189800A2680CBF25EAE57500259A42C4BFC3EBD0
:1018A8000203ED184FF00009A9450ADA3046394617
:1018B80004F11A020123C0470130D4D009F101090B
:1018C800F2E70020BDE8F8832DE9FF470E7E804649
:1018D8006E2E0C4691469A460C9D01F1430000F08D
:1018E800A58011D8632E22D009D8002E00F0AF8031
:1018F800582E40F0BF8081F845607B4A4FE0642E47
:101908001ED0692E1CD0B5E0732E00F0A48009D833
:101918006F2E2BD0702E40F0AD800B6843F0200363
:101928000B6038E0752E21D0782E34D0A2E02B68D9
:1019380001F142071A1D1B682A6081F842309DE0B8
:1019480022682B6812F0800F03D01A1D2A601D68C8
:1019580005E05106F9D51A1D2A60B3F90050002D8B
:1019680039DA2D236D4284F8433034E022682B683D
:1019780012F0800F03D01A1D2A601D6804E0520679
:10198800F9D51A1D2A601D88237E574A6F2B14BF6C
:101998000A2308231BE07823544A84F84530236837
:1019A800296813F0800F01F104062E6001D00D683C
:1019B80002E05F06FBD50D88DE0744BF43F0200335
:1019C80023601DB9236823F020032360102300211E
:1019D80084F8431001E0444A0A236668002EA66092
:1019E80003DB216821F00401216005B96EB104F11F
:1019F8004201B5FBF3F603FB1655555D0F4601F89A
:101A080001593546002EF4D100E00746082B0AD1CB
:101A18002368DD0707D5626823699A4203DC30230F
:101A280007F8013C013FC01B20612CE009682B68C6
:101A380011F0800F626904D0191D29601B681A60B3
:101A480005E04906F8D5191D29601B681A8000238E
:101A58002361074617E02B681A1D2A601F6838465D
:101A6800FFF7F2FC63682061984288BF236123690D
:101A7800636005E004F1420784F8426001232361B2
:101A8800002384F84330CDF800A04046214603AA3D
:101A98004B46FFF7A7FE013002D14FF0FF301FE0A1
:101AA800404649463A462369D0470130F5D0236875
:101AB8009B0705D4E068039B9842B8BF18460FE01F
:101AC8000025E268039BD31A9D42F3DA4046494653
:101AD80004F119020123D0470130DED00135F0E7C7
:101AE80004B0BDE8F08700BF731E0000841E00002C
:101AF80010B5C9B202449042034605D01C780130A3
:101B08008C42F8D1184610BD002010BD814270B536
:101B180001D300230EE08C18A042FAD28518134690
:101B280013F1FF3305D351426618F65C2944CE54AD
:101B3800F6E770BD934203D0CC5CC4540133F9E797
:101B480070BDF8B5064614460D4621B91146BDE8E4
:101B5800F840FFF70BBC1AB9FFF7B8FC2046F8BDF0
:101B680000F015F8A0420ED230462146FFF7FEFBE2
:101B7800074650B129462246FFF7EEFB3046294674
:101B8800FFF7A4FC01E02846F8BD3846F8BD51F837
:101B9800040C002802DA04390B581844043870473A
:101BA8003A7474002F746D70000000005374616300
:101BB8006B206672616D653A0A0000002052302081
:101BC8003D2020253038580A0000000020523120DE
:101BD8003D2020253038580A0000000020523220CD
:101BE8003D2020253038580A0000000020523320BC
:101BF8003D2020253038580A00000000205231329C
:101C0800203D20253038580A00000000204C522082
:101C18003D2020253038580A00000000205043207D
:101C28003D2020253038580A00000000205053522B
:101C3800203D20253038580A000000004653522F16
:101C48004641523A0A0000002043465352203D20A4
:101C580020253038580A00002048465352203D209D
:101C680020253038580A00002044465352203D2091
:101C780020253038580A00002041465352203D2084
:101C880020253038580A0000204D4D464152203D4D
:101C980020253038580A00002042464152203D2075
:101CA80020253038580A00004D6973630A00000087
:101CB800204C522F4558435F52455455524E3D20B3
:101CC800253038580A0000005B4861726446617527
:101CD8006C745D0A000000005B4275734661756CA8
:101CE800745D0A005B55736167654661756C745D68
:101CF8000A00000000202020202020202020282862
:101D080028282820202020202020202020202020B3
:101D180020202020208810101010101010101010F3
:101D28001010101010040404040404040404041023
:101D380010101010101041414141414101010101B1
:101D4800010101010101010101010101010101017B
:101D58001010101010104242424242420202020287
:101D6800020202020202020202020202020202024B
:101D780010101010200000000000000000000000FB
:101D8800000000000000000000000000000000004B
:101D9800000000000000000000000000000000003B
:101DA800000000000000000000000000000000002B
:101DB800000000000000000000000000000000001B
:101DC800000000000000000000000000000000000B
:101DD80000000000000000000000000000000000FB
:101DE80000000000000000000000000000000000EB
:101DF80000000000000000000000000000000000DB
:101E080000000000000000000000000000000000CA
:101E180000000000000000000000000000000000BA
:101E280000000000000000000000000000000000AA
:101E3800000000000000000000000000000000009A
:101E4800000000000000000000000000000000008A
:101E580000000000000000004300232D302B20006C
:101E6800686C4C006566674546470030313233344C
:101E780035363738394142434445460030313233EC
:0D1E880034353637383961626364656600B1
:101E98007856341200127A0000800000006CDC02D0
:101EA800FC1C000000000000001E0000201E0000B6
:101EB800401E0000000000000000000000000000BC
:101EC80000000000601E000000000000000000008C
:101ED80000000000000000000000000000000000FA
:101EE80000000000000000000000000000000000EA
:101EF80000000000000000000000000000000000DA
:0C1F080000000000140000203254769805
:0400000300000045B4
:00000001FF
